{
  "contractName": "DeviceReg",
  "abi": [
    {
      "inputs": [],
      "payable": false,
      "stateMutability": "nonpayable",
      "type": "constructor"
    },
    {
      "constant": false,
      "inputs": [
        {
          "name": "_address",
          "type": "string"
        },
        {
          "name": "_class",
          "type": "uint8"
        },
        {
          "name": "_priority",
          "type": "uint8"
        },
        {
          "name": "_categories",
          "type": "uint8[]"
        },
        {
          "name": "_req_types",
          "type": "uint8[]"
        },
        {
          "name": "_pastBehaviors",
          "type": "string[]"
        },
        {
          "name": "_MAC",
          "type": "string"
        }
      ],
      "name": "registerDevice",
      "outputs": [],
      "payable": false,
      "stateMutability": "nonpayable",
      "type": "function"
    },
    {
      "constant": true,
      "inputs": [
        {
          "name": "_of",
          "type": "string"
        }
      ],
      "name": "getDeviceInfo",
      "outputs": [
        {
          "name": "_address",
          "type": "string"
        },
        {
          "name": "_class",
          "type": "uint8"
        },
        {
          "name": "_priority",
          "type": "uint8"
        },
        {
          "name": "_category",
          "type": "uint8"
        },
        {
          "name": "_MAC",
          "type": "string"
        }
      ],
      "payable": false,
      "stateMutability": "view",
      "type": "function"
    },
    {
      "constant": true,
      "inputs": [
        {
          "name": "_of",
          "type": "string"
        }
      ],
      "name": "isRegistered",
      "outputs": [
        {
          "name": "",
          "type": "bool"
        }
      ],
      "payable": false,
      "stateMutability": "view",
      "type": "function"
    }
  ],
  "bytecode": "0x608060405234801561001057600080fd5b5060003373ffffffffffffffffffffffffffffffffffffffff161415151561003757600080fd5b6000600181905550600060015414151561004d57fe5b60003373ffffffffffffffffffffffffffffffffffffffff161415151561007357600080fd5b611432806100826000396000f300608060405260043610610057576000357c0100000000000000000000000000000000000000000000000000000000900463ffffffff1680633044ef491461005c57806370e4d9751461009d578063c822d7f0146100c6575b600080fd5b34801561006857600080fd5b50610083600480360361007e9190810190611078565b610103565b60405161009495949392919061123e565b60405180910390f35b3480156100a957600080fd5b506100c460048036036100bf91908101906110b9565b610191565b005b3480156100d257600080fd5b506100ed60048036036100e89190810190611078565b6101e3565b6040516100fa9190611223565b60405180910390f35b606060008060006060610114610c04565b61012e87602060405190810160405280600081525061022c565b15151561013a57600080fd5b61014387610305565b90508060000151816020015182604001518360600151600081518110151561016757fe5b90602001906020020151846101200151849450809050955095509550955095505091939590929450565b610199610c04565b60003373ffffffffffffffffffffffffffffffffffffffff16141515156101bf57600080fd5b6101ce88888888888888610780565b90506101d9816108eb565b5050505050505050565b60006101ed610c04565b61020783602060405190810160405280600081525061022c565b15151561021357600080fd5b61021c83610305565b9050806101400151915050919050565b6000816040518082805190602001908083835b602083101515610264578051825260208201915060208101905060208303925061023f565b6001836020036101000a038019825116818451168082178552505050505050905001915050604051809103902060001916836040518082805190602001908083835b6020831015156102cb57805182526020820191506020810190506020830392506102a6565b6001836020036101000a03801982511681845116808217855250505050505090500191505060405180910390206000191614905092915050565b61030d610c04565b610315610c04565b61032f83602060405190810160405280600081525061022c565b15151561033b57600080fd5b6000836040518082805190602001908083835b602083101515610373578051825260208201915060208101905060208303925061034e565b6001836020036101000a03801982511681845116808217855250505050505090500191505090815260200160405180910390206101606040519081016040529081600082018054600181600116156101000203166002900480601f01602080910402602001604051908101604052809291908181526020018280546001816001161561010002031660029004801561044c5780601f106104215761010080835404028352916020019161044c565b820191906000526020600020905b81548152906001019060200180831161042f57829003601f168201915b505050505081526020016001820160009054906101000a900460ff1660ff1660ff1681526020016001820160019054906101000a900460ff1660ff1660ff1681526020016002820180548060200260200160405190810160405280929190818152602001828054801561050457602002820191906000526020600020906000905b82829054906101000a900460ff1660ff16815260200190600101906020826000010492830192600103820291508084116104cd5790505b505050505081526020016003820160009054906101000a900460ff1660ff1660ff1681526020016004820180548060200260200160405190810160405280929190818152602001828054801561059f57602002820191906000526020600020906000905b82829054906101000a900460ff1660ff16815260200190600101906020826000010492830192600103820291508084116105685790505b505050505081526020016005820160009054906101000a900460ff1660ff1660ff16815260200160068201805480602002602001604051908101604052809291908181526020016000905b828210156106a6578382906000526020600020018054600181600116156101000203166002900480601f0160208091040260200160405190810160405280929190818152602001828054600181600116156101000203166002900480156106925780601f1061066757610100808354040283529160200191610692565b820191906000526020600020905b81548152906001019060200180831161067557829003601f168201915b5050505050815260200190600101906105ea565b50505050815260200160078201548152602001600882018054600181600116156101000203166002900480601f0160208091040260200160405190810160405280929190818152602001828054600181600116156101000203166002900480156107515780601f1061072657610100808354040283529160200191610751565b820191906000526020600020905b81548152906001019060200180831161073457829003601f168201915b505050505081526020016009820160009054906101000a900460ff161515151581525050905080915050919050565b610788610c04565b610790610c04565b6107aa89602060405190810160405280600081525061022c565b1515156107b657600080fd5b60008860ff16101515156107c957600080fd5b60038860ff161015156107db57600080fd5b60648760ff161115156107ed57600080fd5b608c8760ff161115151561080057600080fd5b600086511015151561081157600080fd5b610100865110151561082257600080fd5b600085511015151561083357600080fd5b610100855110151561084457600080fd5b600084511015151561085557600080fd5b61086f83602060405190810160405280600081525061022c565b15151561087b57600080fd5b610160604051908101604052808a81526020018960ff1681526020018860ff168152602001878152602001875160ff168152602001868152602001865160ff1681526020018581526020018551815260200184815260200160011515815250905080915050979650505050505050565b6000803373ffffffffffffffffffffffffffffffffffffffff161415151561091257600080fd5b600082600001516040518082805190602001908083835b60208310151561094e5780518252602082019150602081019050602083039250610929565b6001836020036101000a038019825116818451168082178552505050505050905001915050908152602001604051809103902060090160009054906101000a900460ff1615151561099e57600080fd5b600154905081600083600001516040518082805190602001908083835b6020831015156109e057805182526020820191506020810190506020830392506109bb565b6001836020036101000a03801982511681845116808217855250505050505090500191505090815260200160405180910390206000820151816000019080519060200190610a2f929190610c6d565b5060208201518160010160006101000a81548160ff021916908360ff16021790555060408201518160010160016101000a81548160ff021916908360ff1602179055506060820151816002019080519060200190610a8e929190610ced565b5060808201518160030160006101000a81548160ff021916908360ff16021790555060a0820151816004019080519060200190610acc929190610ced565b5060c08201518160050160006101000a81548160ff021916908360ff16021790555060e0820151816006019080519060200190610b0a929190610d94565b506101008201518160070155610120820151816008019080519060200190610b33929190610c6d565b506101408201518160090160006101000a81548160ff0219169083151502179055509050506001806000828254019250508190555060018101600154141515610b7857fe5b600082600001516040518082805190602001908083835b602083101515610bb45780518252602082019150602081019050602083039250610b8f565b6001836020036101000a038019825116818451168082178552505050505050905001915050908152602001604051809103902060090160009054906101000a900460ff161515610c0057fe5b5050565b6101606040519081016040528060608152602001600060ff168152602001600060ff16815260200160608152602001600060ff16815260200160608152602001600060ff1681526020016060815260200160008152602001606081526020016000151581525090565b828054600181600116156101000203166002900490600052602060002090601f016020900481019282601f10610cae57805160ff1916838001178555610cdc565b82800160010185558215610cdc579182015b82811115610cdb578251825591602001919060010190610cc0565b5b509050610ce99190610df4565b5090565b82805482825590600052602060002090601f01602090048101928215610d835791602002820160005b83821115610d5457835183826101000a81548160ff021916908360ff1602179055509260200192600101602081600001049283019260010302610d16565b8015610d815782816101000a81549060ff0219169055600101602081600001049283019260010302610d54565b505b509050610d909190610e19565b5090565b828054828255906000526020600020908101928215610de3579160200282015b82811115610de2578251829080519060200190610dd2929190610c6d565b5091602001919060010190610db4565b5b509050610df09190610e49565b5090565b610e1691905b80821115610e12576000816000905550600101610dfa565b5090565b90565b610e4691905b80821115610e4257600081816101000a81549060ff021916905550600101610e1f565b5090565b90565b610e7291905b80821115610e6e5760008181610e659190610e75565b50600101610e4f565b5090565b90565b50805460018160011615610100020316600290046000825580601f10610e9b5750610eba565b601f016020900490600052602060002090810190610eb99190610df4565b5b50565b600082601f8301121515610ed057600080fd5b8135610ee3610ede826112cc565b61129f565b9150818183526020840193506020810190508360005b83811015610f295781358601610f0f8882610fb8565b845260208401935060208301925050600181019050610ef9565b5050505092915050565b600082601f8301121515610f4657600080fd5b8135610f59610f54826112f4565b61129f565b91508181835260208401935060208101905083856020840282011115610f7e57600080fd5b60005b83811015610fae5781610f948882611064565b845260208401935060208301925050600181019050610f81565b5050505092915050565b600082601f8301121515610fcb57600080fd5b8135610fde610fd98261131c565b61129f565b91508082526020830160208301858383011115610ffa57600080fd5b6110058382846113a5565b50505092915050565b600082601f830112151561102157600080fd5b813561103461102f82611348565b61129f565b9150808252602083016020830185838301111561105057600080fd5b61105b8382846113a5565b50505092915050565b60006110708235611398565b905092915050565b60006020828403121561108a57600080fd5b600082013567ffffffffffffffff8111156110a457600080fd5b6110b08482850161100e565b91505092915050565b600080600080600080600060e0888a0312156110d457600080fd5b600088013567ffffffffffffffff8111156110ee57600080fd5b6110fa8a828b0161100e565b975050602061110b8a828b01611064565b965050604061111c8a828b01611064565b955050606088013567ffffffffffffffff81111561113957600080fd5b6111458a828b01610f33565b945050608088013567ffffffffffffffff81111561116257600080fd5b61116e8a828b01610f33565b93505060a088013567ffffffffffffffff81111561118b57600080fd5b6111978a828b01610ebd565b92505060c088013567ffffffffffffffff8111156111b457600080fd5b6111c08a828b0161100e565b91505092959891949750929550565b6111d88161137f565b82525050565b60006111e982611374565b8084526111fd8160208601602086016113b4565b611206816113e7565b602085010191505092915050565b61121d8161138b565b82525050565b600060208201905061123860008301846111cf565b92915050565b600060a082019050818103600083015261125881886111de565b90506112676020830187611214565b6112746040830186611214565b6112816060830185611214565b818103608083015261129381846111de565b90509695505050505050565b6000604051905081810181811067ffffffffffffffff821117156112c257600080fd5b8060405250919050565b600067ffffffffffffffff8211156112e357600080fd5b602082029050602081019050919050565b600067ffffffffffffffff82111561130b57600080fd5b602082029050602081019050919050565b600067ffffffffffffffff82111561133357600080fd5b601f19601f8301169050602081019050919050565b600067ffffffffffffffff82111561135f57600080fd5b601f19601f8301169050602081019050919050565b600081519050919050565b60008115159050919050565b600060ff82169050919050565b600060ff82169050919050565b82818337600083830152505050565b60005b838110156113d25780820151818401526020810190506113b7565b838111156113e1576000848401525b50505050565b6000601f19601f83011690509190505600a265627a7a72305820fd533500e8e6120f7fa2e97d63da8d0f6af6c2e13db3e6318aa26795dadcc63c6c6578706572696d656e74616cf50037",
  "source": "pragma solidity ^0.4.23;\npragma experimental ABIEncoderV2;\n\nimport {DeviceStorage} from \"./DeviceStorage.sol\";\n\n\n/// @title Node Registration\ncontract DeviceReg is DeviceStorage() {\n    /*\n    * @author Austin Hester\n    * @dev For use in the Registration Dapp\n    */\n\n    constructor() public {\n        require(msg.sender != 0x0);\n    }\n\n    // Register user with given info\n    // Revert o alredy registered\n    function registerDevice(\n        string _address,\n        uint8 _class,\n        uint8 _priority,\n        uint8[] _categories,\n        uint8[] _req_types,\n        string[] _pastBehaviors, \n        string _MAC\n    ) public {\n        require(msg.sender != 0x0);\n        //require(!isRegistered(_address));\n        Device memory newDevice = makeDeviceObject(\n            _address,\n            _class,\n            _priority,\n            _categories,\n            _req_types,\n            _pastBehaviors,\n            _MAC \n        );\n        storeDevice(newDevice);\n        //assert(isRegistered(_address));\n    }\n\n    function getDeviceInfo(\n        string _of\n    ) public view returns (\n        string _address,\n        uint8 _class,\n        uint8 _priority,\n        uint8 _category,\n        string _MAC\n    ) {\n        require(!strcmp(_of, \"\"));\n        Device memory d = getDeviceObject(_of);\n        return (d._address, d.class, d.priority, d.categories[0], d.MAC);\n    }\n\n    // Is this device registered\n    /// @param _of bytes32\n    /// @return boolean\n    function isRegistered(\n        string _of\n    ) public view returns (bool) {\n        require(!strcmp(_of, \"\"));\n        Device memory d = getDeviceObject(_of);\n        return d.isRegistered;\n    }\n\n}\n",
  "sourcePath": "/home/austin/IoTContracts/DeviceReg/contracts/DeviceReg.sol",
  "compiler": {
    "name": "solc",
    "version": "0.4.23+commit.124ca40d.Emscripten.clang"
  },
  "schemaVersion": "2.0.0",
  "updatedAt": "2018-05-02T18:06:50.380Z"
}