{
  "contractName": "DeviceReg",
  "abi": [
    {
      "inputs": [],
      "payable": false,
      "stateMutability": "nonpayable",
      "type": "constructor"
    },
    {
      "constant": false,
      "inputs": [
        {
          "name": "_address",
          "type": "string"
        },
        {
          "name": "_class",
          "type": "uint8"
        },
        {
          "name": "_priority",
          "type": "uint8"
        },
        {
          "name": "_categories",
          "type": "uint8[]"
        },
        {
          "name": "_req_types",
          "type": "uint8[]"
        },
        {
          "name": "_pastBehaviors",
          "type": "string[]"
        },
        {
          "name": "_MAC",
          "type": "string"
        }
      ],
      "name": "registerDevice",
      "outputs": [],
      "payable": false,
      "stateMutability": "nonpayable",
      "type": "function"
    },
    {
      "constant": true,
      "inputs": [
        {
          "name": "_of",
          "type": "string"
        }
      ],
      "name": "getDeviceInfo",
      "outputs": [
        {
          "name": "_address",
          "type": "string"
        },
        {
          "name": "_class",
          "type": "uint8"
        },
        {
          "name": "_priority",
          "type": "uint8"
        },
        {
          "name": "_category",
          "type": "uint8"
        },
        {
          "name": "_MAC",
          "type": "string"
        }
      ],
      "payable": false,
      "stateMutability": "view",
      "type": "function"
    },
    {
      "constant": true,
      "inputs": [
        {
          "name": "_of",
          "type": "string"
        }
      ],
      "name": "isRegistered",
      "outputs": [
        {
          "name": "",
          "type": "bool"
        }
      ],
      "payable": false,
      "stateMutability": "view",
      "type": "function"
    }
  ],
  "bytecode": "0x608060405234801561001057600080fd5b5060003373ffffffffffffffffffffffffffffffffffffffff161415151561003757600080fd5b6000600181905550600060015414151561004d57fe5b60003373ffffffffffffffffffffffffffffffffffffffff161415151561007357600080fd5b611464806100826000396000f300608060405260043610610057576000357c0100000000000000000000000000000000000000000000000000000000900463ffffffff1680633044ef491461005c57806370e4d9751461009d578063c822d7f0146100c6575b600080fd5b34801561006857600080fd5b50610083600480360361007e91908101906110aa565b610103565b604051610094959493929190611270565b60405180910390f35b3480156100a957600080fd5b506100c460048036036100bf91908101906110eb565b6101af565b005b3480156100d257600080fd5b506100ed60048036036100e891908101906110aa565b610227565b6040516100fa9190611255565b60405180910390f35b606060008060006060610114610c36565b6000610130886020604051908101604052806000815250610270565b15151561013c57600080fd5b61014588610349565b91506000826060015151141561015e576000905061017e565b8160600151600081518110151561017157fe5b9060200190602002015190505b8160000151826020015183604001518385610120015184945080905096509650965096509650505091939590929450565b6101b7610c36565b60003373ffffffffffffffffffffffffffffffffffffffff16141515156101dd57600080fd5b6101e688610227565b1515156101f257600080fd5b610201888888888888886107c4565b905061020c8161091d565b61021588610227565b151561021d57fe5b5050505050505050565b6000610231610c36565b61024b836020604051908101604052806000815250610270565b15151561025757600080fd5b61026083610349565b9050806101400151915050919050565b6000816040518082805190602001908083835b6020831015156102a85780518252602082019150602081019050602083039250610283565b6001836020036101000a038019825116818451168082178552505050505050905001915050604051809103902060001916836040518082805190602001908083835b60208310151561030f57805182526020820191506020810190506020830392506102ea565b6001836020036101000a03801982511681845116808217855250505050505090500191505060405180910390206000191614905092915050565b610351610c36565b610359610c36565b610373836020604051908101604052806000815250610270565b15151561037f57600080fd5b6000836040518082805190602001908083835b6020831015156103b75780518252602082019150602081019050602083039250610392565b6001836020036101000a03801982511681845116808217855250505050505090500191505090815260200160405180910390206101606040519081016040529081600082018054600181600116156101000203166002900480601f0160208091040260200160405190810160405280929190818152602001828054600181600116156101000203166002900480156104905780601f1061046557610100808354040283529160200191610490565b820191906000526020600020905b81548152906001019060200180831161047357829003601f168201915b505050505081526020016001820160009054906101000a900460ff1660ff1660ff1681526020016001820160019054906101000a900460ff1660ff1660ff1681526020016002820180548060200260200160405190810160405280929190818152602001828054801561054857602002820191906000526020600020906000905b82829054906101000a900460ff1660ff16815260200190600101906020826000010492830192600103820291508084116105115790505b505050505081526020016003820160009054906101000a900460ff1660ff1660ff168152602001600482018054806020026020016040519081016040528092919081815260200182805480156105e357602002820191906000526020600020906000905b82829054906101000a900460ff1660ff16815260200190600101906020826000010492830192600103820291508084116105ac5790505b505050505081526020016005820160009054906101000a900460ff1660ff1660ff16815260200160068201805480602002602001604051908101604052809291908181526020016000905b828210156106ea578382906000526020600020018054600181600116156101000203166002900480601f0160208091040260200160405190810160405280929190818152602001828054600181600116156101000203166002900480156106d65780601f106106ab576101008083540402835291602001916106d6565b820191906000526020600020905b8154815290600101906020018083116106b957829003601f168201915b50505050508152602001906001019061062e565b50505050815260200160078201548152602001600882018054600181600116156101000203166002900480601f0160208091040260200160405190810160405280929190818152602001828054600181600116156101000203166002900480156107955780601f1061076a57610100808354040283529160200191610795565b820191906000526020600020905b81548152906001019060200180831161077857829003601f168201915b505050505081526020016009820160009054906101000a900460ff161515151581525050905080915050919050565b6107cc610c36565b6107d4610c36565b6107ee896020604051908101604052806000815250610270565b1515156107fa57600080fd5b60008860ff161015151561080d57600080fd5b60038860ff1610151561081f57600080fd5b60648760ff1611151561083157600080fd5b608c8760ff161115151561084457600080fd5b6000865111151561085457600080fd5b610100865110151561086557600080fd5b610100855110151561087657600080fd5b600084511015151561088757600080fd5b6108a1836020604051908101604052806000815250610270565b1515156108ad57600080fd5b610160604051908101604052808a81526020018960ff1681526020018860ff168152602001878152602001875160ff168152602001868152602001865160ff1681526020018581526020018551815260200184815260200160011515815250905080915050979650505050505050565b6000803373ffffffffffffffffffffffffffffffffffffffff161415151561094457600080fd5b600082600001516040518082805190602001908083835b602083101515610980578051825260208201915060208101905060208303925061095b565b6001836020036101000a038019825116818451168082178552505050505050905001915050908152602001604051809103902060090160009054906101000a900460ff161515156109d057600080fd5b600154905081600083600001516040518082805190602001908083835b602083101515610a1257805182526020820191506020810190506020830392506109ed565b6001836020036101000a03801982511681845116808217855250505050505090500191505090815260200160405180910390206000820151816000019080519060200190610a61929190610c9f565b5060208201518160010160006101000a81548160ff021916908360ff16021790555060408201518160010160016101000a81548160ff021916908360ff1602179055506060820151816002019080519060200190610ac0929190610d1f565b5060808201518160030160006101000a81548160ff021916908360ff16021790555060a0820151816004019080519060200190610afe929190610d1f565b5060c08201518160050160006101000a81548160ff021916908360ff16021790555060e0820151816006019080519060200190610b3c929190610dc6565b506101008201518160070155610120820151816008019080519060200190610b65929190610c9f565b506101408201518160090160006101000a81548160ff0219169083151502179055509050506001806000828254019250508190555060018101600154141515610baa57fe5b600082600001516040518082805190602001908083835b602083101515610be65780518252602082019150602081019050602083039250610bc1565b6001836020036101000a038019825116818451168082178552505050505050905001915050908152602001604051809103902060090160009054906101000a900460ff161515610c3257fe5b5050565b6101606040519081016040528060608152602001600060ff168152602001600060ff16815260200160608152602001600060ff16815260200160608152602001600060ff1681526020016060815260200160008152602001606081526020016000151581525090565b828054600181600116156101000203166002900490600052602060002090601f016020900481019282601f10610ce057805160ff1916838001178555610d0e565b82800160010185558215610d0e579182015b82811115610d0d578251825591602001919060010190610cf2565b5b509050610d1b9190610e26565b5090565b82805482825590600052602060002090601f01602090048101928215610db55791602002820160005b83821115610d8657835183826101000a81548160ff021916908360ff1602179055509260200192600101602081600001049283019260010302610d48565b8015610db35782816101000a81549060ff0219169055600101602081600001049283019260010302610d86565b505b509050610dc29190610e4b565b5090565b828054828255906000526020600020908101928215610e15579160200282015b82811115610e14578251829080519060200190610e04929190610c9f565b5091602001919060010190610de6565b5b509050610e229190610e7b565b5090565b610e4891905b80821115610e44576000816000905550600101610e2c565b5090565b90565b610e7891905b80821115610e7457600081816101000a81549060ff021916905550600101610e51565b5090565b90565b610ea491905b80821115610ea05760008181610e979190610ea7565b50600101610e81565b5090565b90565b50805460018160011615610100020316600290046000825580601f10610ecd5750610eec565b601f016020900490600052602060002090810190610eeb9190610e26565b5b50565b600082601f8301121515610f0257600080fd5b8135610f15610f10826112fe565b6112d1565b9150818183526020840193506020810190508360005b83811015610f5b5781358601610f418882610fea565b845260208401935060208301925050600181019050610f2b565b5050505092915050565b600082601f8301121515610f7857600080fd5b8135610f8b610f8682611326565b6112d1565b91508181835260208401935060208101905083856020840282011115610fb057600080fd5b60005b83811015610fe05781610fc68882611096565b845260208401935060208301925050600181019050610fb3565b5050505092915050565b600082601f8301121515610ffd57600080fd5b813561101061100b8261134e565b6112d1565b9150808252602083016020830185838301111561102c57600080fd5b6110378382846113d7565b50505092915050565b600082601f830112151561105357600080fd5b81356110666110618261137a565b6112d1565b9150808252602083016020830185838301111561108257600080fd5b61108d8382846113d7565b50505092915050565b60006110a282356113ca565b905092915050565b6000602082840312156110bc57600080fd5b600082013567ffffffffffffffff8111156110d657600080fd5b6110e284828501611040565b91505092915050565b600080600080600080600060e0888a03121561110657600080fd5b600088013567ffffffffffffffff81111561112057600080fd5b61112c8a828b01611040565b975050602061113d8a828b01611096565b965050604061114e8a828b01611096565b955050606088013567ffffffffffffffff81111561116b57600080fd5b6111778a828b01610f65565b945050608088013567ffffffffffffffff81111561119457600080fd5b6111a08a828b01610f65565b93505060a088013567ffffffffffffffff8111156111bd57600080fd5b6111c98a828b01610eef565b92505060c088013567ffffffffffffffff8111156111e657600080fd5b6111f28a828b01611040565b91505092959891949750929550565b61120a816113b1565b82525050565b600061121b826113a6565b80845261122f8160208601602086016113e6565b61123881611419565b602085010191505092915050565b61124f816113bd565b82525050565b600060208201905061126a6000830184611201565b92915050565b600060a082019050818103600083015261128a8188611210565b90506112996020830187611246565b6112a66040830186611246565b6112b36060830185611246565b81810360808301526112c58184611210565b90509695505050505050565b6000604051905081810181811067ffffffffffffffff821117156112f457600080fd5b8060405250919050565b600067ffffffffffffffff82111561131557600080fd5b602082029050602081019050919050565b600067ffffffffffffffff82111561133d57600080fd5b602082029050602081019050919050565b600067ffffffffffffffff82111561136557600080fd5b601f19601f8301169050602081019050919050565b600067ffffffffffffffff82111561139157600080fd5b601f19601f8301169050602081019050919050565b600081519050919050565b60008115159050919050565b600060ff82169050919050565b600060ff82169050919050565b82818337600083830152505050565b60005b838110156114045780820151818401526020810190506113e9565b83811115611413576000848401525b50505050565b6000601f19601f83011690509190505600a265627a7a72305820341f1400d8632405a961497c0fa89592418ffd2dedb071afdf709591ac5d2d0c6c6578706572696d656e74616cf50037",
  "source": "pragma solidity ^0.4.23;\npragma experimental ABIEncoderV2;\n\nimport {DeviceStorage} from \"./DeviceStorage.sol\";\n\n\n/// @title Node Registration\ncontract DeviceReg is DeviceStorage() {\n    /*\n    * @author Austin Hester\n    * @dev For use in the Registration Dapp\n    */\n\n    constructor() public {\n        require(msg.sender != 0x0);\n    }\n\n    // Register user with given info\n    // Revert o alredy registered\n    function registerDevice(\n        string _address,\n        uint8 _class,\n        uint8 _priority,\n        uint8[] _categories,\n        uint8[] _req_types,\n        string[] _pastBehaviors, \n        string _MAC\n    ) public {\n        require(msg.sender != 0x0);\n        require(!isRegistered(_address));\n        Device memory newDevice = makeDeviceObject(\n            _address,\n            _class,\n            _priority,\n            _categories,\n            _req_types,\n            _pastBehaviors,\n            _MAC \n        );\n        storeDevice(newDevice);\n        assert(isRegistered(_address));\n    }\n\n    function getDeviceInfo(\n        string _of\n    ) public view returns (\n        string _address,\n        uint8 _class,\n        uint8 _priority,\n        uint8 _category,\n        string _MAC\n    ) {\n        require(!strcmp(_of, \"\"));\n        Device memory d = getDeviceObject(_of);\n\tuint8 cat;\n\tif (d.categories.length == 0) {\n\t\tcat = 0;\n\t} else {\n\t\tcat = d.categories[0];\n\t}\n        return (d._address, d.class, d.priority, cat, d.MAC);\n    }\n\n    // Is this device registered\n    /// @param _of bytes32\n    /// @return boolean\n    function isRegistered(\n        string _of\n    ) public view returns (bool) {\n        require(!strcmp(_of, \"\"));\n        Device memory d = getDeviceObject(_of);\n        return d.isRegistered;\n    }\n\n}\n",
  "sourcePath": "/home/miner/form/contracts/DeviceReg.sol",
  "compiler": {
    "name": "solc",
    "version": "0.4.23+commit.124ca40d.Emscripten.clang"
  },
  "schemaVersion": "2.0.0",
  "updatedAt": "2018-05-02T21:14:39.131Z"
}