{
  "contractName": "Register",
  "abi": [
    {
      "constant": true,
      "inputs": [
        {
          "name": "_of",
          "type": "address"
        }
      ],
      "name": "getUserInfo",
      "outputs": [
        {
          "name": "first",
          "type": "string"
        },
        {
          "name": "last",
          "type": "string"
        },
        {
          "name": "email",
          "type": "string"
        }
      ],
      "payable": false,
      "stateMutability": "view",
      "type": "function"
    },
    {
      "inputs": [],
      "payable": false,
      "stateMutability": "nonpayable",
      "type": "constructor"
    },
    {
      "anonymous": false,
      "inputs": [
        {
          "indexed": false,
          "name": "_first",
          "type": "string"
        },
        {
          "indexed": false,
          "name": "_last",
          "type": "string"
        },
        {
          "indexed": false,
          "name": "_email",
          "type": "string"
        }
      ],
      "name": "UserRegistered",
      "type": "event"
    },
    {
      "constant": false,
      "inputs": [
        {
          "name": "_first",
          "type": "string"
        },
        {
          "name": "_last",
          "type": "string"
        },
        {
          "name": "_email",
          "type": "string"
        }
      ],
      "name": "register",
      "outputs": [],
      "payable": false,
      "stateMutability": "nonpayable",
      "type": "function"
    },
    {
      "constant": true,
      "inputs": [
        {
          "name": "_of",
          "type": "address"
        }
      ],
      "name": "getUser",
      "outputs": [
        {
          "name": "first",
          "type": "string"
        },
        {
          "name": "last",
          "type": "string"
        },
        {
          "name": "email",
          "type": "string"
        }
      ],
      "payable": false,
      "stateMutability": "view",
      "type": "function"
    },
    {
      "constant": true,
      "inputs": [
        {
          "name": "_of",
          "type": "address"
        }
      ],
      "name": "isRegistered",
      "outputs": [
        {
          "name": "",
          "type": "bool"
        }
      ],
      "payable": false,
      "stateMutability": "view",
      "type": "function"
    }
  ],
  "bytecode": "0x60806040523480156200001157600080fd5b506040805190810160405280600781526020017f63726561746f720000000000000000000000000000000000000000000000000081525060003373ffffffffffffffffffffffffffffffffffffffff16141515156200006f57600080fd5b6080604051908101604052808281526020016040805190810160405280600181526020017f2d0000000000000000000000000000000000000000000000000000000000000081525081526020016040805190810160405280600181526020017f2d000000000000000000000000000000000000000000000000000000000000008152508152602001600015158152506000803373ffffffffffffffffffffffffffffffffffffffff1673ffffffffffffffffffffffffffffffffffffffff16815260200190815260200160002060008201518160000190805190602001906200015a929190620003c8565b50602082015181600101908051906020019062000179929190620003c8565b50604082015181600201908051906020019062000198929190620003c8565b5060608201518160030160006101000a81548160ff021916908315150217905550905050620002b46000803373ffffffffffffffffffffffffffffffffffffffff1673ffffffffffffffffffffffffffffffffffffffff1681526020019081526020016000206000018054600181600116156101000203166002900480601f016020809104026020016040519081016040528092919081815260200182805460018160011615610100020316600290048015620002995780601f106200026d5761010080835404028352916020019162000299565b820191906000526020600020905b8154815290600101906020018083116200027b57829003601f168201915b505050505082620002eb640100000000026401000000009004565b1515620002bd57fe5b5060003373ffffffffffffffffffffffffffffffffffffffff1614151515620002e557600080fd5b62000477565b6000816040518082805190602001908083835b602083101515620003255780518252602082019150602081019050602083039250620002fe565b6001836020036101000a038019825116818451168082178552505050505050905001915050604051809103902060001916836040518082805190602001908083835b6020831015156200038e578051825260208201915060208101905060208303925062000367565b6001836020036101000a03801982511681845116808217855250505050505090500191505060405180910390206000191614905092915050565b828054600181600116156101000203166002900490600052602060002090601f016020900481019282601f106200040b57805160ff19168380011785556200043c565b828001600101855582156200043c579182015b828111156200043b5782518255916020019190600101906200041e565b5b5090506200044b91906200044f565b5090565b6200047491905b808211156200047057600081600090555060010162000456565b5090565b90565b61113d80620004876000396000f300608060405260043610610062576000357c0100000000000000000000000000000000000000000000000000000000900463ffffffff1680634cd08d03146100675780636386c1c7146100905780636f77926b146100cf578063c3c5a5471461010e575b600080fd5b34801561007357600080fd5b5061008e60048036036100899190810190610e50565b61014b565b005b34801561009c57600080fd5b506100b760048036036100b29190810190610e27565b61020c565b6040516100c693929190610f7d565b60405180910390f35b3480156100db57600080fd5b506100f660048036036100f19190810190610e27565b610466565b60405161010593929190610f7d565b60405180910390f35b34801561011a57600080fd5b5061013560048036036101309190810190610e27565b6104ca565b6040516101429190610f62565b60405180910390f35b610153610ced565b60003373ffffffffffffffffffffffffffffffffffffffff161415151561017957600080fd5b610182336104ca565b15151561018e57600080fd5b6080604051908101604052808581526020018481526020018381526020016001151581525090506101bf3382610512565b7f0a012201ed6ad03a46b4a2be566d40057141543493eb16b35966ad83539abe4f8160000151826020015183604001516040516101fe93929190610fc9565b60405180910390a150505050565b60608060606000808573ffffffffffffffffffffffffffffffffffffffff161415151561023857600080fd5b6000808673ffffffffffffffffffffffffffffffffffffffff1673ffffffffffffffffffffffffffffffffffffffff1681526020019081526020016000209050806000018160010182600201828054600181600116156101000203166002900480601f0160208091040260200160405190810160405280929190818152602001828054600181600116156101000203166002900480156103195780601f106102ee57610100808354040283529160200191610319565b820191906000526020600020905b8154815290600101906020018083116102fc57829003601f168201915b50505050509250818054600181600116156101000203166002900480601f0160208091040260200160405190810160405280929190818152602001828054600181600116156101000203166002900480156103b55780601f1061038a576101008083540402835291602001916103b5565b820191906000526020600020905b81548152906001019060200180831161039857829003601f168201915b50505050509150808054600181600116156101000203166002900480601f0160208091040260200160405190810160405280929190818152602001828054600181600116156101000203166002900480156104515780601f1061042657610100808354040283529160200191610451565b820191906000526020600020905b81548152906001019060200180831161043457829003601f168201915b50505050509050935093509350509193909250565b6060806060610473610ced565b60008573ffffffffffffffffffffffffffffffffffffffff161415151561049957600080fd5b6104a285610988565b9050806000015181602001518260400151829250819150809050935093509350509193909250565b60006104d4610ced565b60008373ffffffffffffffffffffffffffffffffffffffff16141515156104fa57600080fd5b61050383610988565b90508060600151915050919050565b8173ffffffffffffffffffffffffffffffffffffffff163373ffffffffffffffffffffffffffffffffffffffff1614151561054c57600080fd5b6000803373ffffffffffffffffffffffffffffffffffffffff1673ffffffffffffffffffffffffffffffffffffffff16815260200190815260200160002060030160009054906101000a900460ff161515156105a757600080fd5b806000803373ffffffffffffffffffffffffffffffffffffffff1673ffffffffffffffffffffffffffffffffffffffff1681526020019081526020016000206000820151816000019080519060200190610602929190610d18565b50602082015181600101908051906020019061061f929190610d18565b50604082015181600201908051906020019061063c929190610d18565b5060608201518160030160006101000a81548160ff0219169083151502179055509050506000803373ffffffffffffffffffffffffffffffffffffffff1673ffffffffffffffffffffffffffffffffffffffff16815260200190815260200160002060030160009054906101000a900460ff1615156106b757fe5b61079e6000803373ffffffffffffffffffffffffffffffffffffffff1673ffffffffffffffffffffffffffffffffffffffff1681526020019081526020016000206000018054600181600116156101000203166002900480601f01602080910402602001604051908101604052809291908181526020018280546001816001161561010002031660029004801561078f5780601f106107645761010080835404028352916020019161078f565b820191906000526020600020905b81548152906001019060200180831161077257829003601f168201915b50505050508260000151610c14565b15156107a657fe5b61088d6000803373ffffffffffffffffffffffffffffffffffffffff1673ffffffffffffffffffffffffffffffffffffffff1681526020019081526020016000206001018054600181600116156101000203166002900480601f01602080910402602001604051908101604052809291908181526020018280546001816001161561010002031660029004801561087e5780601f106108535761010080835404028352916020019161087e565b820191906000526020600020905b81548152906001019060200180831161086157829003601f168201915b50505050508260200151610c14565b151561089557fe5b61097c6000803373ffffffffffffffffffffffffffffffffffffffff1673ffffffffffffffffffffffffffffffffffffffff1681526020019081526020016000206002018054600181600116156101000203166002900480601f01602080910402602001604051908101604052809291908181526020018280546001816001161561010002031660029004801561096d5780601f106109425761010080835404028352916020019161096d565b820191906000526020600020905b81548152906001019060200180831161095057829003601f168201915b50505050508260400151610c14565b151561098457fe5b5050565b610990610ced565b610998610ced565b60008373ffffffffffffffffffffffffffffffffffffffff16141515156109be57600080fd5b6000808473ffffffffffffffffffffffffffffffffffffffff1673ffffffffffffffffffffffffffffffffffffffff16815260200190815260200160002060806040519081016040529081600082018054600181600116156101000203166002900480601f016020809104026020016040519081016040528092919081815260200182805460018160011615610100020316600290048015610aa15780601f10610a7657610100808354040283529160200191610aa1565b820191906000526020600020905b815481529060010190602001808311610a8457829003601f168201915b50505050508152602001600182018054600181600116156101000203166002900480601f016020809104026020016040519081016040528092919081815260200182805460018160011615610100020316600290048015610b435780601f10610b1857610100808354040283529160200191610b43565b820191906000526020600020905b815481529060010190602001808311610b2657829003601f168201915b50505050508152602001600282018054600181600116156101000203166002900480601f016020809104026020016040519081016040528092919081815260200182805460018160011615610100020316600290048015610be55780601f10610bba57610100808354040283529160200191610be5565b820191906000526020600020905b815481529060010190602001808311610bc857829003601f168201915b505050505081526020016003820160009054906101000a900460ff161515151581525050905080915050919050565b6000816040518082805190602001908083835b602083101515610c4c5780518252602082019150602081019050602083039250610c27565b6001836020036101000a038019825116818451168082178552505050505050905001915050604051809103902060001916836040518082805190602001908083835b602083101515610cb35780518252602082019150602081019050602083039250610c8e565b6001836020036101000a03801982511681845116808217855250505050505090500191505060405180910390206000191614905092915050565b6080604051908101604052806060815260200160608152602001606081526020016000151581525090565b828054600181600116156101000203166002900490600052602060002090601f016020900481019282601f10610d5957805160ff1916838001178555610d87565b82800160010185558215610d87579182015b82811115610d86578251825591602001919060010190610d6b565b5b509050610d949190610d98565b5090565b610dba91905b80821115610db6576000816000905550600101610d9e565b5090565b90565b6000610dc98235611090565b905092915050565b600082601f8301121515610de457600080fd5b8135610df7610df282611042565b611015565b91508082526020830160208301858383011115610e1357600080fd5b610e1e8382846110b0565b50505092915050565b600060208284031215610e3957600080fd5b6000610e4784828501610dbd565b91505092915050565b600080600060608486031215610e6557600080fd5b600084013567ffffffffffffffff811115610e7f57600080fd5b610e8b86828701610dd1565b935050602084013567ffffffffffffffff811115610ea857600080fd5b610eb486828701610dd1565b925050604084013567ffffffffffffffff811115610ed157600080fd5b610edd86828701610dd1565b9150509250925092565b610ef081611084565b82525050565b6000610f0182611079565b808452610f158160208601602086016110bf565b610f1e816110f2565b602085010191505092915050565b6000610f378261106e565b808452610f4b8160208601602086016110bf565b610f54816110f2565b602085010191505092915050565b6000602082019050610f776000830184610ee7565b92915050565b60006060820190508181036000830152610f978186610ef6565b90508181036020830152610fab8185610ef6565b90508181036040830152610fbf8184610ef6565b9050949350505050565b60006060820190508181036000830152610fe38186610f2c565b90508181036020830152610ff78185610f2c565b9050818103604083015261100b8184610f2c565b9050949350505050565b6000604051905081810181811067ffffffffffffffff8211171561103857600080fd5b8060405250919050565b600067ffffffffffffffff82111561105957600080fd5b601f19601f8301169050602081019050919050565b600081519050919050565b600081519050919050565b60008115159050919050565b600073ffffffffffffffffffffffffffffffffffffffff82169050919050565b82818337600083830152505050565b60005b838110156110dd5780820151818401526020810190506110c2565b838111156110ec576000848401525b50505050565b6000601f19601f83011690509190505600a265627a7a72305820280541c04c8f37abce7c59d405b452672cfbdfe25873714ea0d1170f1564b6516c6578706572696d656e74616cf50037",
  "source": "pragma solidity ^0.4.23;\npragma experimental ABIEncoderV2;\n\nimport {UserStorage} from \"./UserStorage.sol\";\n\n\n/// @title Node Registration\ncontract Register is UserStorage(\"creator\") {\n    /*\n    * @author Austin Hester\n    * @dev For use in the Registration Dapp\n    */\n\n    // User struct located in ./UserStorage.sol\n    mapping(address => User) users;\n\n    event UserRegistered(string _first, string _last, string _email);\n\n    constructor() public {\n        require(msg.sender != 0x0);\n    }\n\n    // Register user with given info\n    // Revert o alredy registered\n    /// @param _first name\n    /// @param _last name\n    /// @param _email email\n    function register(\n        string _first,\n        string _last,\n        string _email\n    ) public {\n        require(msg.sender != 0x0);\n        require(!isRegistered(msg.sender));\n        User memory newUser = User(_first, _last, _email, true);\n        storeUser(msg.sender, newUser);\n        emit UserRegistered(newUser.first, newUser.last, newUser.email);\n    }\n    \n    // Get array of user info\n    /// @param _of address _of\n    /// @return array [first, last, email]\n    function getUser(\n        address _of\n    ) public view returns (\n        string first,\n        string last,\n        string email\n    ) {\n        require(_of != 0x0);\n        User memory u = getUserObject(_of);\n        return (u.first, u.last, u.email);\n    }\n\n    // Is this user registerede\n    /// @param _of address \n    /// @return boolean\n    function isRegistered(\n        address _of\n    ) public view returns (bool) {\n        require(_of != 0x0);\n        User memory u = getUserObject(_of);\n        return u.isRegistered;\n    }\n\n}\n",
  "sourcePath": "/home/austin/contracts/form/contracts/Register.sol",
  "compiler": {
    "name": "solc",
    "version": "0.4.23+commit.124ca40d.Emscripten.clang"
  },
  "schemaVersion": "2.0.0",
  "updatedAt": "2018-04-29T06:27:09.855Z"
}