{
  "contractName": "UserStorage",
  "abi": [
    {
      "inputs": [
        {
          "name": "_creator",
          "type": "string"
        }
      ],
      "payable": false,
      "stateMutability": "nonpayable",
      "type": "constructor"
    },
    {
      "constant": true,
      "inputs": [
        {
          "name": "_of",
          "type": "address"
        }
      ],
      "name": "getUserInfo",
      "outputs": [
        {
          "name": "first",
          "type": "string"
        },
        {
          "name": "last",
          "type": "string"
        },
        {
          "name": "email",
          "type": "string"
        }
      ],
      "payable": false,
      "stateMutability": "view",
      "type": "function"
    }
  ],
  "bytecode": "0x608060405234801561001057600080fd5b5060405161099638038061099683398101806040526100329190810190610473565b60003373ffffffffffffffffffffffffffffffffffffffff161415151561005857600080fd5b6080604051908101604052808281526020016040805190810160405280600181526020017f2d0000000000000000000000000000000000000000000000000000000000000081525081526020016040805190810160405280600181526020017f2d000000000000000000000000000000000000000000000000000000000000008152508152602001600015158152506000803373ffffffffffffffffffffffffffffffffffffffff1673ffffffffffffffffffffffffffffffffffffffff1681526020019081526020016000206000820151816000019080519060200190610141929190610378565b50602082015181600101908051906020019061015e929190610378565b50604082015181600201908051906020019061017b929190610378565b5060608201518160030160006101000a81548160ff0219169083151502179055509050506102916000803373ffffffffffffffffffffffffffffffffffffffff1673ffffffffffffffffffffffffffffffffffffffff1681526020019081526020016000206000018054600181600116156101000203166002900480601f0160208091040260200160405190810160405280929190818152602001828054600181600116156101000203166002900480156102775780601f1061024c57610100808354040283529160200191610277565b820191906000526020600020905b81548152906001019060200180831161025a57829003601f168201915b50505050508261029f640100000000026401000000009004565b151561029957fe5b50610540565b6000816040518082805190602001908083835b6020831015156102d757805182526020820191506020810190506020830392506102b2565b6001836020036101000a038019825116818451168082178552505050505050905001915050604051809103902060001916836040518082805190602001908083835b60208310151561033e5780518252602082019150602081019050602083039250610319565b6001836020036101000a03801982511681845116808217855250505050505090500191505060405180910390206000191614905092915050565b828054600181600116156101000203166002900490600052602060002090601f016020900481019282601f106103b957805160ff19168380011785556103e7565b828001600101855582156103e7579182015b828111156103e65782518255916020019190600101906103cb565b5b5090506103f491906103f8565b5090565b61041a91905b808211156104165760008160009055506001016103fe565b5090565b90565b600082601f830112151561043057600080fd5b815161044361043e826104e1565b6104b4565b9150808252602083016020830185838301111561045f57600080fd5b61046a83828461050d565b50505092915050565b60006020828403121561048557600080fd5b600082015167ffffffffffffffff81111561049f57600080fd5b6104ab8482850161041d565b91505092915050565b6000604051905081810181811067ffffffffffffffff821117156104d757600080fd5b8060405250919050565b600067ffffffffffffffff8211156104f857600080fd5b601f19601f8301169050602081019050919050565b60005b8381101561052b578082015181840152602081019050610510565b8381111561053a576000848401525b50505050565b6104478061054f6000396000f300608060405260043610610041576000357c0100000000000000000000000000000000000000000000000000000000900463ffffffff1680636386c1c714610046575b600080fd5b34801561005257600080fd5b5061006d600480360361006891908101906102f3565b610085565b60405161007c93929190610352565b60405180910390f35b60608060606000808573ffffffffffffffffffffffffffffffffffffffff16141515156100b157600080fd5b6000808673ffffffffffffffffffffffffffffffffffffffff1673ffffffffffffffffffffffffffffffffffffffff1681526020019081526020016000209050806000018160010182600201828054600181600116156101000203166002900480601f0160208091040260200160405190810160405280929190818152602001828054600181600116156101000203166002900480156101925780601f1061016757610100808354040283529160200191610192565b820191906000526020600020905b81548152906001019060200180831161017557829003601f168201915b50505050509250818054600181600116156101000203166002900480601f01602080910402602001604051908101604052809291908181526020018280546001816001161561010002031660029004801561022e5780601f106102035761010080835404028352916020019161022e565b820191906000526020600020905b81548152906001019060200180831161021157829003601f168201915b50505050509150808054600181600116156101000203166002900480601f0160208091040260200160405190810160405280929190818152602001828054600181600116156101000203166002900480156102ca5780601f1061029f576101008083540402835291602001916102ca565b820191906000526020600020905b8154815290600101906020018083116102ad57829003601f168201915b50505050509050935093509350509193909250565b60006102eb82356103a9565b905092915050565b60006020828403121561030557600080fd5b6000610313848285016102df565b91505092915050565b60006103278261039e565b80845261033b8160208601602086016103c9565b610344816103fc565b602085010191505092915050565b6000606082019050818103600083015261036c818661031c565b90508181036020830152610380818561031c565b90508181036040830152610394818461031c565b9050949350505050565b600081519050919050565b600073ffffffffffffffffffffffffffffffffffffffff82169050919050565b60005b838110156103e75780820151818401526020810190506103cc565b838111156103f6576000848401525b50505050565b6000601f19601f83011690509190505600a265627a7a72305820a7e3d45d14e96884c238a85f9ceb5cc3bb14b4ad6a26c05a37cc94a6d62277196c6578706572696d656e74616cf50037",
  "source": "pragma solidity ^0.4.23;\npragma experimental ABIEncoderV2;\n\n\n/// @title User Storage\ncontract UserStorage {\n    /*\n    * @author Austin Hester\n    * @dev Built to be used by other contracts\n    */\n\n    // Represents a user\n\tstruct User {\n\t    string first;\n\t    string last;\n\t    string email;\n\t    bool isRegistered;\n\t    //string other;\n\t}\n\n\tmapping(address => User) private mUsers;\n\n    // Solidity 0.4.23 has an issue with inheritence\n    // and multiple contsructors\n    // using old-style contsructor here for now\n    constructor(string _creator) public {\n    \trequire(msg.sender != 0x0);\n       \tmUsers[msg.sender] = User(_creator, \"-\", \"-\", false);\n        assert(strcmp(mUsers[msg.sender].first, _creator));\n    }\n\n    // Get info about the user at given address\n    /// @param _of address \n    /// @return array [first, last, email]\n    function getUserInfo(\n        address _of\n    ) public view returns (\n        string first,\n        string last,\n        string email\n    ) {\n        require(_of != 0x0);\n        User storage u = mUsers[_of];\n        return (u.first, u.last, u.email);\n    } \n\n    // Get the User object, cannot get through web3 as of now\n    // Can only be used in contracts.\n    // Cannot use struct as return values. -Apr 18\n    /// @return {User} object \n    function getUserObject(\n        address _of\n    ) internal view returns (User) {\n        require(_of != 0x0);\n        User memory u = mUsers[_of];\n        return u;\n    } \n\n    // Store the User object\n    /// @param _of address \n    /// @param _user object \n    function storeUser(address _of, User _user) internal {\n    \trequire(msg.sender == _of);\n        require(!mUsers[msg.sender].isRegistered);\n    \tmUsers[msg.sender] = _user;\n        assert(mUsers[msg.sender].isRegistered);\n        assert(strcmp(mUsers[msg.sender].first, _user.first));\n        assert(strcmp(mUsers[msg.sender].last, _user.last));\n        assert(strcmp(mUsers[msg.sender].email, _user.email));\n    }\n\n    /// @param a string \n    /// @param b string \n    /// @return boolean \n    function strcmp(\n        string a,\n        string b\n    ) internal pure returns (bool) {\n        return (keccak256(a) == keccak256(b));\n    }\n\n}\n",
  "sourcePath": "/home/austin/contracts/form/contracts/UserStorage.sol",
  "compiler": {
    "name": "solc",
    "version": "0.4.23+commit.124ca40d.Emscripten.clang"
  },
  "schemaVersion": "2.0.0",
  "updatedAt": "2018-04-29T06:27:09.852Z"
}